{
  "contractName": "ERC20Token",
  "abi": [
    {
      "inputs": [
        {
          "internalType": "string",
          "name": "_name",
          "type": "string"
        },
        {
          "internalType": "string",
          "name": "_symbol",
          "type": "string"
        },
        {
          "internalType": "uint8",
          "name": "_decimals",
          "type": "uint8"
        },
        {
          "internalType": "uint256",
          "name": "_totalSupply",
          "type": "uint256"
        }
      ],
      "stateMutability": "nonpayable",
      "type": "constructor"
    },
    {
      "anonymous": false,
      "inputs": [
        {
          "indexed": true,
          "internalType": "address",
          "name": "tokenOwner",
          "type": "address"
        },
        {
          "indexed": true,
          "internalType": "address",
          "name": "spender",
          "type": "address"
        },
        {
          "indexed": false,
          "internalType": "uint256",
          "name": "tokens",
          "type": "uint256"
        }
      ],
      "name": "Approval",
      "type": "event"
    },
    {
      "anonymous": false,
      "inputs": [
        {
          "indexed": true,
          "internalType": "address",
          "name": "from",
          "type": "address"
        },
        {
          "indexed": true,
          "internalType": "address",
          "name": "to",
          "type": "address"
        },
        {
          "indexed": false,
          "internalType": "uint256",
          "name": "tokens",
          "type": "uint256"
        }
      ],
      "name": "Transfer",
      "type": "event"
    },
    {
      "inputs": [
        {
          "internalType": "address",
          "name": "",
          "type": "address"
        },
        {
          "internalType": "address",
          "name": "",
          "type": "address"
        }
      ],
      "name": "allowed",
      "outputs": [
        {
          "internalType": "uint256",
          "name": "",
          "type": "uint256"
        }
      ],
      "stateMutability": "view",
      "type": "function",
      "constant": true
    },
    {
      "inputs": [
        {
          "internalType": "address",
          "name": "",
          "type": "address"
        }
      ],
      "name": "balances",
      "outputs": [
        {
          "internalType": "uint256",
          "name": "",
          "type": "uint256"
        }
      ],
      "stateMutability": "view",
      "type": "function",
      "constant": true
    },
    {
      "inputs": [],
      "name": "decimals",
      "outputs": [
        {
          "internalType": "uint8",
          "name": "",
          "type": "uint8"
        }
      ],
      "stateMutability": "view",
      "type": "function",
      "constant": true
    },
    {
      "inputs": [],
      "name": "name",
      "outputs": [
        {
          "internalType": "string",
          "name": "",
          "type": "string"
        }
      ],
      "stateMutability": "view",
      "type": "function",
      "constant": true
    },
    {
      "inputs": [],
      "name": "symbol",
      "outputs": [
        {
          "internalType": "string",
          "name": "",
          "type": "string"
        }
      ],
      "stateMutability": "view",
      "type": "function",
      "constant": true
    },
    {
      "inputs": [],
      "name": "totalSupply",
      "outputs": [
        {
          "internalType": "uint256",
          "name": "",
          "type": "uint256"
        }
      ],
      "stateMutability": "view",
      "type": "function",
      "constant": true
    },
    {
      "inputs": [
        {
          "internalType": "address",
          "name": "to",
          "type": "address"
        },
        {
          "internalType": "uint256",
          "name": "value",
          "type": "uint256"
        }
      ],
      "name": "transfer",
      "outputs": [
        {
          "internalType": "bool",
          "name": "",
          "type": "bool"
        }
      ],
      "stateMutability": "nonpayable",
      "type": "function"
    },
    {
      "inputs": [
        {
          "internalType": "address",
          "name": "from",
          "type": "address"
        },
        {
          "internalType": "address",
          "name": "to",
          "type": "address"
        },
        {
          "internalType": "uint256",
          "name": "value",
          "type": "uint256"
        }
      ],
      "name": "transferFrom",
      "outputs": [
        {
          "internalType": "bool",
          "name": "",
          "type": "bool"
        }
      ],
      "stateMutability": "nonpayable",
      "type": "function"
    },
    {
      "inputs": [
        {
          "internalType": "address",
          "name": "spender",
          "type": "address"
        },
        {
          "internalType": "uint256",
          "name": "value",
          "type": "uint256"
        }
      ],
      "name": "approve",
      "outputs": [
        {
          "internalType": "bool",
          "name": "",
          "type": "bool"
        }
      ],
      "stateMutability": "nonpayable",
      "type": "function"
    },
    {
      "inputs": [
        {
          "internalType": "address",
          "name": "owner",
          "type": "address"
        },
        {
          "internalType": "address",
          "name": "spender",
          "type": "address"
        }
      ],
      "name": "allowance",
      "outputs": [
        {
          "internalType": "uint256",
          "name": "",
          "type": "uint256"
        }
      ],
      "stateMutability": "view",
      "type": "function",
      "constant": true
    },
    {
      "inputs": [
        {
          "internalType": "address",
          "name": "owner",
          "type": "address"
        }
      ],
      "name": "balanceOf",
      "outputs": [
        {
          "internalType": "uint256",
          "name": "",
          "type": "uint256"
        }
      ],
      "stateMutability": "view",
      "type": "function",
      "constant": true
    }
  ],
  "bytecode": "0x60806040523480156200001157600080fd5b506040516200143c3803806200143c833981810160405281019062000037919062000229565b83600090805190602001906200004f929190620000d9565b50826001908051906020019062000068929190620000d9565b5081600260006101000a81548160ff021916908360ff1602179055508060038190555080600460003373ffffffffffffffffffffffffffffffffffffffff1673ffffffffffffffffffffffffffffffffffffffff168152602001908152602001600020819055505050505062000482565b828054620000e79062000373565b90600052602060002090601f0160209004810192826200010b576000855562000157565b82601f106200012657805160ff191683800117855562000157565b8280016001018555821562000157579182015b828111156200015657825182559160200191906001019062000139565b5b5090506200016691906200016a565b5090565b5b80821115620001855760008160009055506001016200016b565b5090565b6000620001a06200019a84620002f0565b620002c7565b905082815260208101848484011115620001b957600080fd5b620001c68482856200033d565b509392505050565b600082601f830112620001e057600080fd5b8151620001f284826020860162000189565b91505092915050565b6000815190506200020c816200044e565b92915050565b600081519050620002238162000468565b92915050565b600080600080608085870312156200024057600080fd5b600085015167ffffffffffffffff8111156200025b57600080fd5b6200026987828801620001ce565b945050602085015167ffffffffffffffff8111156200028757600080fd5b6200029587828801620001ce565b9350506040620002a88782880162000212565b9250506060620002bb87828801620001fb565b91505092959194509250565b6000620002d3620002e6565b9050620002e18282620003a9565b919050565b6000604051905090565b600067ffffffffffffffff8211156200030e576200030d6200040e565b5b62000319826200043d565b9050602081019050919050565b6000819050919050565b600060ff82169050919050565b60005b838110156200035d57808201518184015260208101905062000340565b838111156200036d576000848401525b50505050565b600060028204905060018216806200038c57607f821691505b60208210811415620003a357620003a2620003df565b5b50919050565b620003b4826200043d565b810181811067ffffffffffffffff82111715620003d657620003d56200040e565b5b80604052505050565b7f4e487b7100000000000000000000000000000000000000000000000000000000600052602260045260246000fd5b7f4e487b7100000000000000000000000000000000000000000000000000000000600052604160045260246000fd5b6000601f19601f8301169050919050565b620004598162000326565b81146200046557600080fd5b50565b620004738162000330565b81146200047f57600080fd5b50565b610faa80620004926000396000f3fe608060405234801561001057600080fd5b50600436106100a95760003560e01c8063313ce56711610071578063313ce5671461017a5780635c6581651461019857806370a08231146101c857806395d89b41146101f8578063a9059cbb14610216578063dd62ed3e14610246576100a9565b806306fdde03146100ae578063095ea7b3146100cc57806318160ddd146100fc57806323b872dd1461011a57806327e235e31461014a575b600080fd5b6100b6610276565b6040516100c39190610c44565b60405180910390f35b6100e660048036038101906100e19190610b1e565b610304565b6040516100f39190610c29565b60405180910390f35b6101046103f6565b6040516101119190610cc6565b60405180910390f35b610134600480360381019061012f9190610acf565b6103fc565b6040516101419190610c29565b60405180910390f35b610164600480360381019061015f9190610a6a565b6106f3565b6040516101719190610cc6565b60405180910390f35b61018261070b565b60405161018f9190610ce1565b60405180910390f35b6101b260048036038101906101ad9190610a93565b61071e565b6040516101bf9190610cc6565b60405180910390f35b6101e260048036038101906101dd9190610a6a565b610743565b6040516101ef9190610cc6565b60405180910390f35b61020061078c565b60405161020d9190610c44565b60405180910390f35b610230600480360381019061022b9190610b1e565b61081a565b60405161023d9190610c29565b60405180910390f35b610260600480360381019061025b9190610a93565b6109b9565b60405161026d9190610cc6565b60405180910390f35b6000805461028390610e2a565b80601f01602080910402602001604051908101604052809291908181526020018280546102af90610e2a565b80156102fc5780601f106102d1576101008083540402835291602001916102fc565b820191906000526020600020905b8154815290600101906020018083116102df57829003601f168201915b505050505081565b600081600560003373ffffffffffffffffffffffffffffffffffffffff1673ffffffffffffffffffffffffffffffffffffffff16815260200190815260200160002060008573ffffffffffffffffffffffffffffffffffffffff1673ffffffffffffffffffffffffffffffffffffffff168152602001908152602001600020819055508273ffffffffffffffffffffffffffffffffffffffff163373ffffffffffffffffffffffffffffffffffffffff167f8c5be1e5ebec7d5bd14f71427d1e84f3dd0314c0f7b2291e5b200ac8c7c3b925846040516103e49190610cc6565b60405180910390a36001905092915050565b60035481565b600080600560008673ffffffffffffffffffffffffffffffffffffffff1673ffffffffffffffffffffffffffffffffffffffff16815260200190815260200160002060003373ffffffffffffffffffffffffffffffffffffffff1673ffffffffffffffffffffffffffffffffffffffff168152602001908152602001600020549050828110156104c1576040517f08c379a00000000000000000000000000000000000000000000000000000000081526004016104b890610c86565b60405180910390fd5b82600460008773ffffffffffffffffffffffffffffffffffffffff1673ffffffffffffffffffffffffffffffffffffffff168152602001908152602001600020541015610543576040517f08c379a000000000000000000000000000000000000000000000000000000000815260040161053a90610ca6565b60405180910390fd5b82600560008773ffffffffffffffffffffffffffffffffffffffff1673ffffffffffffffffffffffffffffffffffffffff16815260200190815260200160002060003373ffffffffffffffffffffffffffffffffffffffff1673ffffffffffffffffffffffffffffffffffffffff16815260200190815260200160002060008282546105cf9190610d6e565b9250508190555082600460003373ffffffffffffffffffffffffffffffffffffffff1673ffffffffffffffffffffffffffffffffffffffff16815260200190815260200160002060008282546106259190610d6e565b9250508190555082600460008673ffffffffffffffffffffffffffffffffffffffff1673ffffffffffffffffffffffffffffffffffffffff168152602001908152602001600020600082825461067b9190610d18565b925050819055508373ffffffffffffffffffffffffffffffffffffffff163373ffffffffffffffffffffffffffffffffffffffff167fddf252ad1be2c89b69c2b068fc378daa952ba7f163c4a11628f55a4df523b3ef856040516106df9190610cc6565b60405180910390a360019150509392505050565b60046020528060005260406000206000915090505481565b600260009054906101000a900460ff1681565b6005602052816000526040600020602052806000526040600020600091509150505481565b6000600460008373ffffffffffffffffffffffffffffffffffffffff1673ffffffffffffffffffffffffffffffffffffffff168152602001908152602001600020549050919050565b6001805461079990610e2a565b80601f01602080910402602001604051908101604052809291908181526020018280546107c590610e2a565b80156108125780601f106107e757610100808354040283529160200191610812565b820191906000526020600020905b8154815290600101906020018083116107f557829003601f168201915b505050505081565b600081600460003373ffffffffffffffffffffffffffffffffffffffff1673ffffffffffffffffffffffffffffffffffffffff16815260200190815260200160002054101561089e576040517f08c379a000000000000000000000000000000000000000000000000000000000815260040161089590610c66565b60405180910390fd5b81600460003373ffffffffffffffffffffffffffffffffffffffff1673ffffffffffffffffffffffffffffffffffffffff16815260200190815260200160002060008282546108ed9190610d6e565b9250508190555081600460008573ffffffffffffffffffffffffffffffffffffffff1673ffffffffffffffffffffffffffffffffffffffff16815260200190815260200160002060008282546109439190610d18565b925050819055508273ffffffffffffffffffffffffffffffffffffffff163373ffffffffffffffffffffffffffffffffffffffff167fddf252ad1be2c89b69c2b068fc378daa952ba7f163c4a11628f55a4df523b3ef846040516109a79190610cc6565b60405180910390a36001905092915050565b6000600560008473ffffffffffffffffffffffffffffffffffffffff1673ffffffffffffffffffffffffffffffffffffffff16815260200190815260200160002060008373ffffffffffffffffffffffffffffffffffffffff1673ffffffffffffffffffffffffffffffffffffffff16815260200190815260200160002054905092915050565b600081359050610a4f81610f46565b92915050565b600081359050610a6481610f5d565b92915050565b600060208284031215610a7c57600080fd5b6000610a8a84828501610a40565b91505092915050565b60008060408385031215610aa657600080fd5b6000610ab485828601610a40565b9250506020610ac585828601610a40565b9150509250929050565b600080600060608486031215610ae457600080fd5b6000610af286828701610a40565b9350506020610b0386828701610a40565b9250506040610b1486828701610a55565b9150509250925092565b60008060408385031215610b3157600080fd5b6000610b3f85828601610a40565b9250506020610b5085828601610a55565b9150509250929050565b610b6381610db4565b82525050565b6000610b7482610cfc565b610b7e8185610d07565b9350610b8e818560208601610df7565b610b9781610eba565b840191505092915050565b6000610baf600f83610d07565b9150610bba82610ecb565b602082019050919050565b6000610bd2601183610d07565b9150610bdd82610ef4565b602082019050919050565b6000610bf5601583610d07565b9150610c0082610f1d565b602082019050919050565b610c1481610de0565b82525050565b610c2381610dea565b82525050565b6000602082019050610c3e6000830184610b5a565b92915050565b60006020820190508181036000830152610c5e8184610b69565b905092915050565b60006020820190508181036000830152610c7f81610ba2565b9050919050565b60006020820190508181036000830152610c9f81610bc5565b9050919050565b60006020820190508181036000830152610cbf81610be8565b9050919050565b6000602082019050610cdb6000830184610c0b565b92915050565b6000602082019050610cf66000830184610c1a565b92915050565b600081519050919050565b600082825260208201905092915050565b6000610d2382610de0565b9150610d2e83610de0565b9250827fffffffffffffffffffffffffffffffffffffffffffffffffffffffffffffffff03821115610d6357610d62610e5c565b5b828201905092915050565b6000610d7982610de0565b9150610d8483610de0565b925082821015610d9757610d96610e5c565b5b828203905092915050565b6000610dad82610dc0565b9050919050565b60008115159050919050565b600073ffffffffffffffffffffffffffffffffffffffff82169050919050565b6000819050919050565b600060ff82169050919050565b60005b83811015610e15578082015181840152602081019050610dfa565b83811115610e24576000848401525b50505050565b60006002820490506001821680610e4257607f821691505b60208210811415610e5657610e55610e8b565b5b50919050565b7f4e487b7100000000000000000000000000000000000000000000000000000000600052601160045260246000fd5b7f4e487b7100000000000000000000000000000000000000000000000000000000600052602260045260246000fd5b6000601f19601f8301169050919050565b7f62616c616e636520746f6f206c6f770000000000000000000000000000000000600082015250565b7f616c6c6f77616e636520746f6f206c6f77000000000000000000000000000000600082015250565b7f746f6b656e2062616c616e636520746f6f206c6f770000000000000000000000600082015250565b610f4f81610da2565b8114610f5a57600080fd5b50565b610f6681610de0565b8114610f7157600080fd5b5056fea2646970667358221220ec07e9d9ad8bd2905dc7296cd6af87d1417114ea73496077b64e6ab7cefa0aac64736f6c63430008010033",
  "immutableReferences": {},
  "source": "pragma solidity ^0.8.1;\n\ninterface ERC20Interface {\n    function transfer(address to, uint256 tokens)\n        external\n        returns (bool success);\n\n    function transferFrom(\n        address from,\n        address to,\n        uint256 tokens\n    ) external returns (bool success);\n\n    function balanceOf(address tokenOwner)\n        external\n        view\n        returns (uint256 balance);\n\n    function approve(address spender, uint256 tokens)\n        external\n        returns (bool success);\n\n    function allowance(address tokenOwner, address spender)\n        external\n        view\n        returns (uint256 remaining);\n\n    function totalSupply() external view returns (uint256);\n\n    event Transfer(address indexed from, address indexed to, uint256 tokens);\n    event Approval(\n        address indexed tokenOwner,\n        address indexed spender,\n        uint256 tokens\n    );\n}\n\n// Inherit the interface\ncontract ERC20Token is ERC20Interface {\n    string public name;\n    string public symbol;\n    uint8 public decimals;\n    uint256 public override totalSupply;\n    mapping(address => uint256) public balances;\n    mapping(address => mapping(address => uint256)) public allowed;\n\n    constructor(\n        string memory _name,\n        string memory _symbol,\n        uint8 _decimals,\n        uint256 _totalSupply\n    ) {\n        name = _name;\n        symbol = _symbol;\n        decimals = _decimals;\n        totalSupply = _totalSupply;\n        balances[msg.sender] = _totalSupply;\n    }\n\n    function transfer(address to, uint256 value)\n        public\n        override\n        returns (bool)\n    {\n        require(balances[msg.sender] >= value, \"balance too low\");\n        balances[msg.sender] -= value;\n        balances[to] += value;\n        emit Transfer(msg.sender, to, value);\n        return true;\n    }\n\n    function transferFrom(\n        address from,\n        address to,\n        uint256 value\n    ) public override returns (bool) {\n        uint256 _allowance = allowed[from][msg.sender];\n        require(_allowance >= value, \"allowance too low\");\n        require(balances[from] >= value, \"token balance too low\");\n        allowed[from][msg.sender] -= value;\n        balances[msg.sender] -= value;\n        balances[to] += value;\n        emit Transfer(msg.sender, to, value);\n        return true;\n    }\n\n    function approve(address spender, uint256 value)\n        public\n        override\n        returns (bool)\n    {\n        allowed[msg.sender][spender] = value;\n        emit Approval(msg.sender, spender, value);\n        return true;\n    }\n\n    function allowance(address owner, address spender)\n        public\n        view\n        override\n        returns (uint256)\n    {\n        return allowed[owner][spender];\n    }\n\n    function balanceOf(address owner) public view override returns (uint256) {\n        return balances[owner];\n    }\n}\n",
  "sourcePath": "/Users/heyyehudes/Documents/Dapp_30/ERC20/contracts/ERC20Token.sol",
  "compiler": {
    "name": "solc",
    "version": "0.8.1+commit.df193b15.Emscripten.clang"
  },
  "schemaVersion": "3.3.1",
  "updatedAt": "2021-03-22T00:03:55.574Z",
  "networkType": "ethereum",
  "devdoc": {
    "kind": "dev",
    "methods": {},
    "version": 1
  },
  "userdoc": {
    "kind": "user",
    "methods": {},
    "version": 1
  }
}