{
  "contractName": "ERC20Token",
  "abi": [
    {
      "inputs": [
        {
          "internalType": "string",
          "name": "_name",
          "type": "string"
        },
        {
          "internalType": "string",
          "name": "_symbol",
          "type": "string"
        },
        {
          "internalType": "uint8",
          "name": "_decimals",
          "type": "uint8"
        },
        {
          "internalType": "uint256",
          "name": "_initialSupply",
          "type": "uint256"
        }
      ],
      "stateMutability": "nonpayable",
      "type": "constructor"
    },
    {
      "anonymous": false,
      "inputs": [
        {
          "indexed": true,
          "internalType": "address",
          "name": "tokenOwner",
          "type": "address"
        },
        {
          "indexed": true,
          "internalType": "address",
          "name": "spender",
          "type": "address"
        },
        {
          "indexed": false,
          "internalType": "uint256",
          "name": "tokens",
          "type": "uint256"
        }
      ],
      "name": "Approval",
      "type": "event"
    },
    {
      "anonymous": false,
      "inputs": [
        {
          "indexed": true,
          "internalType": "address",
          "name": "from",
          "type": "address"
        },
        {
          "indexed": true,
          "internalType": "address",
          "name": "to",
          "type": "address"
        },
        {
          "indexed": false,
          "internalType": "uint256",
          "name": "tokens",
          "type": "uint256"
        }
      ],
      "name": "Transfer",
      "type": "event"
    },
    {
      "inputs": [],
      "name": "_totalSupply",
      "outputs": [
        {
          "internalType": "uint256",
          "name": "",
          "type": "uint256"
        }
      ],
      "stateMutability": "view",
      "type": "function",
      "constant": true
    },
    {
      "inputs": [
        {
          "internalType": "address",
          "name": "",
          "type": "address"
        },
        {
          "internalType": "address",
          "name": "",
          "type": "address"
        }
      ],
      "name": "allowed",
      "outputs": [
        {
          "internalType": "uint256",
          "name": "",
          "type": "uint256"
        }
      ],
      "stateMutability": "view",
      "type": "function",
      "constant": true
    },
    {
      "inputs": [
        {
          "internalType": "address",
          "name": "",
          "type": "address"
        }
      ],
      "name": "balances",
      "outputs": [
        {
          "internalType": "uint256",
          "name": "",
          "type": "uint256"
        }
      ],
      "stateMutability": "view",
      "type": "function",
      "constant": true
    },
    {
      "inputs": [],
      "name": "decimals",
      "outputs": [
        {
          "internalType": "uint8",
          "name": "",
          "type": "uint8"
        }
      ],
      "stateMutability": "view",
      "type": "function",
      "constant": true
    },
    {
      "inputs": [],
      "name": "name",
      "outputs": [
        {
          "internalType": "string",
          "name": "",
          "type": "string"
        }
      ],
      "stateMutability": "view",
      "type": "function",
      "constant": true
    },
    {
      "inputs": [],
      "name": "symbol",
      "outputs": [
        {
          "internalType": "string",
          "name": "",
          "type": "string"
        }
      ],
      "stateMutability": "view",
      "type": "function",
      "constant": true
    },
    {
      "inputs": [
        {
          "internalType": "address",
          "name": "to",
          "type": "address"
        },
        {
          "internalType": "uint256",
          "name": "value",
          "type": "uint256"
        }
      ],
      "name": "transfer",
      "outputs": [
        {
          "internalType": "bool",
          "name": "",
          "type": "bool"
        }
      ],
      "stateMutability": "nonpayable",
      "type": "function"
    },
    {
      "inputs": [
        {
          "internalType": "address",
          "name": "from",
          "type": "address"
        },
        {
          "internalType": "address",
          "name": "to",
          "type": "address"
        },
        {
          "internalType": "uint256",
          "name": "value",
          "type": "uint256"
        }
      ],
      "name": "transferFrom",
      "outputs": [
        {
          "internalType": "bool",
          "name": "",
          "type": "bool"
        }
      ],
      "stateMutability": "nonpayable",
      "type": "function"
    },
    {
      "inputs": [
        {
          "internalType": "address",
          "name": "spender",
          "type": "address"
        },
        {
          "internalType": "uint256",
          "name": "value",
          "type": "uint256"
        }
      ],
      "name": "approve",
      "outputs": [
        {
          "internalType": "bool",
          "name": "",
          "type": "bool"
        }
      ],
      "stateMutability": "nonpayable",
      "type": "function"
    },
    {
      "inputs": [
        {
          "internalType": "address",
          "name": "owner",
          "type": "address"
        },
        {
          "internalType": "address",
          "name": "spender",
          "type": "address"
        }
      ],
      "name": "allowance",
      "outputs": [
        {
          "internalType": "uint256",
          "name": "",
          "type": "uint256"
        }
      ],
      "stateMutability": "view",
      "type": "function",
      "constant": true
    },
    {
      "inputs": [
        {
          "internalType": "address",
          "name": "owner",
          "type": "address"
        }
      ],
      "name": "balanceOf",
      "outputs": [
        {
          "internalType": "uint256",
          "name": "",
          "type": "uint256"
        }
      ],
      "stateMutability": "view",
      "type": "function",
      "constant": true
    },
    {
      "inputs": [],
      "name": "totalSupply",
      "outputs": [
        {
          "internalType": "uint256",
          "name": "",
          "type": "uint256"
        }
      ],
      "stateMutability": "view",
      "type": "function",
      "constant": true
    }
  ],
  "bytecode": "0x60806040523480156200001157600080fd5b506040516200146f3803806200146f833981810160405281019062000037919062000229565b83600090805190602001906200004f929190620000d9565b50826001908051906020019062000068929190620000d9565b5081600260006101000a81548160ff021916908360ff1602179055508060038190555080600460003373ffffffffffffffffffffffffffffffffffffffff1673ffffffffffffffffffffffffffffffffffffffff168152602001908152602001600020819055505050505062000482565b828054620000e79062000373565b90600052602060002090601f0160209004810192826200010b576000855562000157565b82601f106200012657805160ff191683800117855562000157565b8280016001018555821562000157579182015b828111156200015657825182559160200191906001019062000139565b5b5090506200016691906200016a565b5090565b5b80821115620001855760008160009055506001016200016b565b5090565b6000620001a06200019a84620002f0565b620002c7565b905082815260208101848484011115620001b957600080fd5b620001c68482856200033d565b509392505050565b600082601f830112620001e057600080fd5b8151620001f284826020860162000189565b91505092915050565b6000815190506200020c816200044e565b92915050565b600081519050620002238162000468565b92915050565b600080600080608085870312156200024057600080fd5b600085015167ffffffffffffffff8111156200025b57600080fd5b6200026987828801620001ce565b945050602085015167ffffffffffffffff8111156200028757600080fd5b6200029587828801620001ce565b9350506040620002a88782880162000212565b9250506060620002bb87828801620001fb565b91505092959194509250565b6000620002d3620002e6565b9050620002e18282620003a9565b919050565b6000604051905090565b600067ffffffffffffffff8211156200030e576200030d6200040e565b5b62000319826200043d565b9050602081019050919050565b6000819050919050565b600060ff82169050919050565b60005b838110156200035d57808201518184015260208101905062000340565b838111156200036d576000848401525b50505050565b600060028204905060018216806200038c57607f821691505b60208210811415620003a357620003a2620003df565b5b50919050565b620003b4826200043d565b810181811067ffffffffffffffff82111715620003d657620003d56200040e565b5b80604052505050565b7f4e487b7100000000000000000000000000000000000000000000000000000000600052602260045260246000fd5b7f4e487b7100000000000000000000000000000000000000000000000000000000600052604160045260246000fd5b6000601f19601f8301169050919050565b620004598162000326565b81146200046557600080fd5b50565b620004738162000330565b81146200047f57600080fd5b50565b610fdd80620004926000396000f3fe608060405234801561001057600080fd5b50600436106100b45760003560e01c80633eaaf86b116100715780633eaaf86b146101a35780635c658165146101c157806370a08231146101f157806395d89b4114610221578063a9059cbb1461023f578063dd62ed3e1461026f576100b4565b806306fdde03146100b9578063095ea7b3146100d757806318160ddd1461010757806323b872dd1461012557806327e235e314610155578063313ce56714610185575b600080fd5b6100c161029f565b6040516100ce9190610c77565b60405180910390f35b6100f160048036038101906100ec9190610b51565b61032d565b6040516100fe9190610c5c565b60405180910390f35b61010f61041f565b60405161011c9190610cf9565b60405180910390f35b61013f600480360381019061013a9190610b02565b610429565b60405161014c9190610c5c565b60405180910390f35b61016f600480360381019061016a9190610a9d565b610720565b60405161017c9190610cf9565b60405180910390f35b61018d610738565b60405161019a9190610d14565b60405180910390f35b6101ab61074b565b6040516101b89190610cf9565b60405180910390f35b6101db60048036038101906101d69190610ac6565b610751565b6040516101e89190610cf9565b60405180910390f35b61020b60048036038101906102069190610a9d565b610776565b6040516102189190610cf9565b60405180910390f35b6102296107bf565b6040516102369190610c77565b60405180910390f35b61025960048036038101906102549190610b51565b61084d565b6040516102669190610c5c565b60405180910390f35b61028960048036038101906102849190610ac6565b6109ec565b6040516102969190610cf9565b60405180910390f35b600080546102ac90610e5d565b80601f01602080910402602001604051908101604052809291908181526020018280546102d890610e5d565b80156103255780601f106102fa57610100808354040283529160200191610325565b820191906000526020600020905b81548152906001019060200180831161030857829003601f168201915b505050505081565b600081600560003373ffffffffffffffffffffffffffffffffffffffff1673ffffffffffffffffffffffffffffffffffffffff16815260200190815260200160002060008573ffffffffffffffffffffffffffffffffffffffff1673ffffffffffffffffffffffffffffffffffffffff168152602001908152602001600020819055508273ffffffffffffffffffffffffffffffffffffffff163373ffffffffffffffffffffffffffffffffffffffff167f8c5be1e5ebec7d5bd14f71427d1e84f3dd0314c0f7b2291e5b200ac8c7c3b9258460405161040d9190610cf9565b60405180910390a36001905092915050565b6000600354905090565b600080600560008673ffffffffffffffffffffffffffffffffffffffff1673ffffffffffffffffffffffffffffffffffffffff16815260200190815260200160002060003373ffffffffffffffffffffffffffffffffffffffff1673ffffffffffffffffffffffffffffffffffffffff168152602001908152602001600020549050828110156104ee576040517f08c379a00000000000000000000000000000000000000000000000000000000081526004016104e590610cb9565b60405180910390fd5b82600460008773ffffffffffffffffffffffffffffffffffffffff1673ffffffffffffffffffffffffffffffffffffffff168152602001908152602001600020541015610570576040517f08c379a000000000000000000000000000000000000000000000000000000000815260040161056790610cd9565b60405180910390fd5b82600560008773ffffffffffffffffffffffffffffffffffffffff1673ffffffffffffffffffffffffffffffffffffffff16815260200190815260200160002060003373ffffffffffffffffffffffffffffffffffffffff1673ffffffffffffffffffffffffffffffffffffffff16815260200190815260200160002060008282546105fc9190610da1565b9250508190555082600460008773ffffffffffffffffffffffffffffffffffffffff1673ffffffffffffffffffffffffffffffffffffffff16815260200190815260200160002060008282546106529190610da1565b9250508190555082600460008673ffffffffffffffffffffffffffffffffffffffff1673ffffffffffffffffffffffffffffffffffffffff16815260200190815260200160002060008282546106a89190610d4b565b925050819055508373ffffffffffffffffffffffffffffffffffffffff163373ffffffffffffffffffffffffffffffffffffffff167fddf252ad1be2c89b69c2b068fc378daa952ba7f163c4a11628f55a4df523b3ef8560405161070c9190610cf9565b60405180910390a360019150509392505050565b60046020528060005260406000206000915090505481565b600260009054906101000a900460ff1681565b60035481565b6005602052816000526040600020602052806000526040600020600091509150505481565b6000600460008373ffffffffffffffffffffffffffffffffffffffff1673ffffffffffffffffffffffffffffffffffffffff168152602001908152602001600020549050919050565b600180546107cc90610e5d565b80601f01602080910402602001604051908101604052809291908181526020018280546107f890610e5d565b80156108455780601f1061081a57610100808354040283529160200191610845565b820191906000526020600020905b81548152906001019060200180831161082857829003601f168201915b505050505081565b600081600460003373ffffffffffffffffffffffffffffffffffffffff1673ffffffffffffffffffffffffffffffffffffffff1681526020019081526020016000205410156108d1576040517f08c379a00000000000000000000000000000000000000000000000000000000081526004016108c890610c99565b60405180910390fd5b81600460003373ffffffffffffffffffffffffffffffffffffffff1673ffffffffffffffffffffffffffffffffffffffff16815260200190815260200160002060008282546109209190610da1565b9250508190555081600460008573ffffffffffffffffffffffffffffffffffffffff1673ffffffffffffffffffffffffffffffffffffffff16815260200190815260200160002060008282546109769190610d4b565b925050819055508273ffffffffffffffffffffffffffffffffffffffff163373ffffffffffffffffffffffffffffffffffffffff167fddf252ad1be2c89b69c2b068fc378daa952ba7f163c4a11628f55a4df523b3ef846040516109da9190610cf9565b60405180910390a36001905092915050565b6000600560008473ffffffffffffffffffffffffffffffffffffffff1673ffffffffffffffffffffffffffffffffffffffff16815260200190815260200160002060008373ffffffffffffffffffffffffffffffffffffffff1673ffffffffffffffffffffffffffffffffffffffff16815260200190815260200160002054905092915050565b600081359050610a8281610f79565b92915050565b600081359050610a9781610f90565b92915050565b600060208284031215610aaf57600080fd5b6000610abd84828501610a73565b91505092915050565b60008060408385031215610ad957600080fd5b6000610ae785828601610a73565b9250506020610af885828601610a73565b9150509250929050565b600080600060608486031215610b1757600080fd5b6000610b2586828701610a73565b9350506020610b3686828701610a73565b9250506040610b4786828701610a88565b9150509250925092565b60008060408385031215610b6457600080fd5b6000610b7285828601610a73565b9250506020610b8385828601610a88565b9150509250929050565b610b9681610de7565b82525050565b6000610ba782610d2f565b610bb18185610d3a565b9350610bc1818560208601610e2a565b610bca81610eed565b840191505092915050565b6000610be2600f83610d3a565b9150610bed82610efe565b602082019050919050565b6000610c05601183610d3a565b9150610c1082610f27565b602082019050919050565b6000610c28601583610d3a565b9150610c3382610f50565b602082019050919050565b610c4781610e13565b82525050565b610c5681610e1d565b82525050565b6000602082019050610c716000830184610b8d565b92915050565b60006020820190508181036000830152610c918184610b9c565b905092915050565b60006020820190508181036000830152610cb281610bd5565b9050919050565b60006020820190508181036000830152610cd281610bf8565b9050919050565b60006020820190508181036000830152610cf281610c1b565b9050919050565b6000602082019050610d0e6000830184610c3e565b92915050565b6000602082019050610d296000830184610c4d565b92915050565b600081519050919050565b600082825260208201905092915050565b6000610d5682610e13565b9150610d6183610e13565b9250827fffffffffffffffffffffffffffffffffffffffffffffffffffffffffffffffff03821115610d9657610d95610e8f565b5b828201905092915050565b6000610dac82610e13565b9150610db783610e13565b925082821015610dca57610dc9610e8f565b5b828203905092915050565b6000610de082610df3565b9050919050565b60008115159050919050565b600073ffffffffffffffffffffffffffffffffffffffff82169050919050565b6000819050919050565b600060ff82169050919050565b60005b83811015610e48578082015181840152602081019050610e2d565b83811115610e57576000848401525b50505050565b60006002820490506001821680610e7557607f821691505b60208210811415610e8957610e88610ebe565b5b50919050565b7f4e487b7100000000000000000000000000000000000000000000000000000000600052601160045260246000fd5b7f4e487b7100000000000000000000000000000000000000000000000000000000600052602260045260246000fd5b6000601f19601f8301169050919050565b7f62616c616e636520746f6f206c6f770000000000000000000000000000000000600082015250565b7f616c6c6f77616e636520746f6f206c6f77000000000000000000000000000000600082015250565b7f746f6b656e2062616c616e636520746f6f206c6f770000000000000000000000600082015250565b610f8281610dd5565b8114610f8d57600080fd5b50565b610f9981610e13565b8114610fa457600080fd5b5056fea2646970667358221220e646b98f2b0e2652f2e4dab1076c28d5441d59d1f4c44b0251da42bb6f540d9a64736f6c63430008010033",
  "immutableReferences": {},
  "source": "pragma solidity ^0.8.1;\n\ninterface ERC20Interface {\n    function transfer(address to, uint256 tokens)\n        external\n        returns (bool success);\n\n    function transferFrom(\n        address from,\n        address to,\n        uint256 tokens\n    ) external returns (bool success);\n\n    function balanceOf(address tokenOwner)\n        external\n        view\n        returns (uint256 balance);\n\n    function approve(address spender, uint256 tokens)\n        external\n        returns (bool success);\n\n    function allowance(address tokenOwner, address spender)\n        external\n        view\n        returns (uint256 remaining);\n\n    function totalSupply() external view returns (uint256);\n\n    event Transfer(address indexed from, address indexed to, uint256 tokens);\n    event Approval(\n        address indexed tokenOwner,\n        address indexed spender,\n        uint256 tokens\n    );\n}\n\n// Inherit the interface\ncontract ERC20Token is ERC20Interface {\n    string public name;\n    string public symbol;\n    uint8 public decimals;\n    uint256 public _totalSupply;\n    mapping(address => uint256) public balances;\n    mapping(address => mapping(address => uint256)) public allowed;\n\n    constructor(\n        string memory _name,\n        string memory _symbol,\n        uint8 _decimals,\n        uint256 _initialSupply\n    ) {\n        name = _name;\n        symbol = _symbol;\n        decimals = _decimals;\n        _totalSupply = _initialSupply;\n        balances[msg.sender] = _initialSupply;\n    }\n\n    function transfer(address to, uint256 value)\n        public\n        override\n        returns (bool)\n    {\n        require(balances[msg.sender] >= value, \"balance too low\");\n        balances[msg.sender] -= value;\n        balances[to] += value;\n        emit Transfer(msg.sender, to, value);\n        return true;\n    }\n\n    function transferFrom(\n        address from,\n        address to,\n        uint256 value\n    ) public override returns (bool) {\n        uint256 _allowance = allowed[from][msg.sender];\n        require(_allowance >= value, \"allowance too low\");\n        require(balances[from] >= value, \"token balance too low\");\n        allowed[from][msg.sender] -= value;\n        balances[from] -= value;\n        balances[to] += value;\n        emit Transfer(msg.sender, to, value);\n        return true;\n    }\n\n    function approve(address spender, uint256 value)\n        public\n        override\n        returns (bool)\n    {\n        allowed[msg.sender][spender] = value;\n        emit Approval(msg.sender, spender, value);\n        return true;\n    }\n\n    function allowance(address owner, address spender)\n        public\n        view\n        override\n        returns (uint256)\n    {\n        return allowed[owner][spender];\n    }\n\n    function balanceOf(address owner) public view override returns (uint256) {\n        return balances[owner];\n    }\n\n    function totalSupply() external view override returns (uint256) {\n        return _totalSupply;\n    }\n}\n",
  "sourcePath": "/Users/heyyehudes/Documents/Dapp_30/ERC20/contracts/ERC20Token.sol",
  "compiler": {
    "name": "solc",
    "version": "0.8.1+commit.df193b15.Emscripten.clang"
  },
  "schemaVersion": "3.3.1",
  "updatedAt": "2021-03-22T23:15:24.295Z",
  "networkType": "ethereum",
  "devdoc": {
    "kind": "dev",
    "methods": {},
    "version": 1
  },
  "userdoc": {
    "kind": "user",
    "methods": {},
    "version": 1
  }
}